{
  "contractName": "sneakerMarket",
  "abi": [
    {
      "constant": true,
      "inputs": [
        {
          "name": "interfaceId",
          "type": "bytes4"
        }
      ],
      "name": "supportsInterface",
      "outputs": [
        {
          "name": "",
          "type": "bool"
        }
      ],
      "payable": false,
      "stateMutability": "view",
      "type": "function"
    },
    {
      "constant": true,
      "inputs": [
        {
          "name": "tokenId",
          "type": "uint256"
        }
      ],
      "name": "getApproved",
      "outputs": [
        {
          "name": "",
          "type": "address"
        }
      ],
      "payable": false,
      "stateMutability": "view",
      "type": "function"
    },
    {
      "constant": false,
      "inputs": [
        {
          "name": "approved",
          "type": "address"
        },
        {
          "name": "tokenId",
          "type": "uint256"
        }
      ],
      "name": "approve",
      "outputs": [],
      "payable": true,
      "stateMutability": "payable",
      "type": "function"
    },
    {
      "constant": false,
      "inputs": [
        {
          "name": "from",
          "type": "address"
        },
        {
          "name": "to",
          "type": "address"
        },
        {
          "name": "tokenId",
          "type": "uint256"
        }
      ],
      "name": "transferFrom",
      "outputs": [],
      "payable": false,
      "stateMutability": "nonpayable",
      "type": "function"
    },
    {
      "constant": false,
      "inputs": [
        {
          "name": "from",
          "type": "address"
        },
        {
          "name": "to",
          "type": "address"
        },
        {
          "name": "tokenId",
          "type": "uint256"
        }
      ],
      "name": "safeTransferFrom",
      "outputs": [],
      "payable": false,
      "stateMutability": "nonpayable",
      "type": "function"
    },
    {
      "constant": true,
      "inputs": [
        {
          "name": "sender",
          "type": "address"
        },
        {
          "name": "tokenId",
          "type": "uint256"
        }
      ],
      "name": "isApprovedOrOwner",
      "outputs": [
        {
          "name": "",
          "type": "bool"
        }
      ],
      "payable": false,
      "stateMutability": "view",
      "type": "function"
    },
    {
      "constant": true,
      "inputs": [],
      "name": "_wallet",
      "outputs": [
        {
          "name": "",
          "type": "address"
        }
      ],
      "payable": false,
      "stateMutability": "view",
      "type": "function"
    },
    {
      "constant": true,
      "inputs": [
        {
          "name": "tokenId",
          "type": "uint256"
        }
      ],
      "name": "ownerOf",
      "outputs": [
        {
          "name": "",
          "type": "address"
        }
      ],
      "payable": false,
      "stateMutability": "view",
      "type": "function"
    },
    {
      "constant": true,
      "inputs": [
        {
          "name": "owner",
          "type": "address"
        }
      ],
      "name": "balanceOf",
      "outputs": [
        {
          "name": "",
          "type": "uint256"
        }
      ],
      "payable": false,
      "stateMutability": "view",
      "type": "function"
    },
    {
      "constant": true,
      "inputs": [],
      "name": "owner",
      "outputs": [
        {
          "name": "",
          "type": "address"
        }
      ],
      "payable": false,
      "stateMutability": "view",
      "type": "function"
    },
    {
      "constant": false,
      "inputs": [
        {
          "name": "operator",
          "type": "address"
        },
        {
          "name": "approved",
          "type": "bool"
        }
      ],
      "name": "setApprovalForAll",
      "outputs": [],
      "payable": false,
      "stateMutability": "nonpayable",
      "type": "function"
    },
    {
      "constant": true,
      "inputs": [
        {
          "name": "",
          "type": "uint256"
        }
      ],
      "name": "tokenIdToSneakerPrice",
      "outputs": [
        {
          "name": "",
          "type": "uint256"
        }
      ],
      "payable": false,
      "stateMutability": "view",
      "type": "function"
    },
    {
      "constant": false,
      "inputs": [
        {
          "name": "from",
          "type": "address"
        },
        {
          "name": "to",
          "type": "address"
        },
        {
          "name": "tokenId",
          "type": "uint256"
        },
        {
          "name": "data",
          "type": "bytes"
        }
      ],
      "name": "safeTransferFrom",
      "outputs": [],
      "payable": false,
      "stateMutability": "nonpayable",
      "type": "function"
    },
    {
      "constant": true,
      "inputs": [
        {
          "name": "owner",
          "type": "address"
        },
        {
          "name": "operator",
          "type": "address"
        }
      ],
      "name": "isApprovedForAll",
      "outputs": [
        {
          "name": "",
          "type": "bool"
        }
      ],
      "payable": false,
      "stateMutability": "view",
      "type": "function"
    },
    {
      "inputs": [
        {
          "name": "wallet",
          "type": "address"
        }
      ],
      "payable": false,
      "stateMutability": "nonpayable",
      "type": "constructor"
    },
    {
      "anonymous": false,
      "inputs": [
        {
          "indexed": true,
          "name": "_from",
          "type": "address"
        },
        {
          "indexed": true,
          "name": "_to",
          "type": "address"
        },
        {
          "indexed": true,
          "name": "_tokenId",
          "type": "uint256"
        }
      ],
      "name": "Transfer",
      "type": "event"
    },
    {
      "anonymous": false,
      "inputs": [
        {
          "indexed": true,
          "name": "_owner",
          "type": "address"
        },
        {
          "indexed": true,
          "name": "_approved",
          "type": "address"
        },
        {
          "indexed": true,
          "name": "_tokenId",
          "type": "uint256"
        }
      ],
      "name": "Approval",
      "type": "event"
    },
    {
      "anonymous": false,
      "inputs": [
        {
          "indexed": true,
          "name": "_owner",
          "type": "address"
        },
        {
          "indexed": true,
          "name": "_operator",
          "type": "address"
        },
        {
          "indexed": false,
          "name": "_approved",
          "type": "bool"
        }
      ],
      "name": "ApprovalForAll",
      "type": "event"
    },
    {
      "constant": false,
      "inputs": [
        {
          "name": "_tokenId",
          "type": "uint256"
        },
        {
          "name": "_price",
          "type": "uint256"
        }
      ],
      "name": "storingNewSneaker",
      "outputs": [],
      "payable": false,
      "stateMutability": "nonpayable",
      "type": "function"
    },
    {
      "constant": true,
      "inputs": [
        {
          "name": "_tokenId",
          "type": "uint256"
        }
      ],
      "name": "checkPrice",
      "outputs": [
        {
          "name": "",
          "type": "uint256"
        }
      ],
      "payable": false,
      "stateMutability": "view",
      "type": "function"
    },
    {
      "constant": false,
      "inputs": [
        {
          "name": "_tokenId",
          "type": "uint256"
        }
      ],
      "name": "buySneaker",
      "outputs": [],
      "payable": true,
      "stateMutability": "payable",
      "type": "function"
    }
  ],
  "bytecode": "0x60806040523480156200001157600080fd5b50604051602080620020b3833981018060405260208110156200003357600080fd5b81019080805190602001909291905050506200005c6301ffc9a760e01b620000fd60201b60201c565b620000746380ac58cd60e01b620000fd60201b60201c565b33600660006101000a81548173ffffffffffffffffffffffffffffffffffffffff021916908373ffffffffffffffffffffffffffffffffffffffff16021790555080600560006101000a81548173ffffffffffffffffffffffffffffffffffffffff021916908373ffffffffffffffffffffffffffffffffffffffff1602179055505062000206565b63ffffffff60e01b817bffffffffffffffffffffffffffffffffffffffffffffffffffffffff191614156200019a576040517f08c379a000000000000000000000000000000000000000000000000000000000815260040180806020018281038252601c8152602001807f4552433136353a20696e76616c696420696e746572666163652069640000000081525060200191505060405180910390fd5b6001600080837bffffffffffffffffffffffffffffffffffffffffffffffffffffffff19167bffffffffffffffffffffffffffffffffffffffffffffffffffffffff1916815260200190815260200160002060006101000a81548160ff02191690831515021790555050565b611e9d80620002166000396000f3fe6080604052600436106100fe5760003560e01c80636352211e116100955780638da5cb5b116100645780638da5cb5b146105a0578063a22cb465146105f7578063a55d923914610654578063b88d4fde146106a3578063e985e9c5146107b5576100fe565b80636352211e1461044d57806370a08231146104c85780637382bc6a1461052d5780637541b37f1461055b576100fe565b806323b872dd116100d157806323b872dd1461028d57806342842e0e14610308578063430c208114610383578063610757e4146103f6576100fe565b806301ffc9a714610103578063081812fc14610175578063095ea7b3146101f05780631de7463a1461023e575b600080fd5b34801561010f57600080fd5b5061015b6004803603602081101561012657600080fd5b8101908080357bffffffffffffffffffffffffffffffffffffffffffffffffffffffff1916906020019092919050505061083e565b604051808215151515815260200191505060405180910390f35b34801561018157600080fd5b506101ae6004803603602081101561019857600080fd5b81019080803590602001909291905050506108a5565b604051808273ffffffffffffffffffffffffffffffffffffffff1673ffffffffffffffffffffffffffffffffffffffff16815260200191505060405180910390f35b61023c6004803603604081101561020657600080fd5b81019080803573ffffffffffffffffffffffffffffffffffffffff169060200190929190803590602001909291905050506108e2565b005b34801561024a57600080fd5b506102776004803603602081101561026157600080fd5b8101908080359060200190929190505050610b03565b6040518082815260200191505060405180910390f35b34801561029957600080fd5b50610306600480360360608110156102b057600080fd5b81019080803573ffffffffffffffffffffffffffffffffffffffff169060200190929190803573ffffffffffffffffffffffffffffffffffffffff16906020019092919080359060200190929190505050610b20565b005b34801561031457600080fd5b506103816004803603606081101561032b57600080fd5b81019080803573ffffffffffffffffffffffffffffffffffffffff169060200190929190803573ffffffffffffffffffffffffffffffffffffffff16906020019092919080359060200190929190505050610dd1565b005b34801561038f57600080fd5b506103dc600480360360408110156103a657600080fd5b81019080803573ffffffffffffffffffffffffffffffffffffffff16906020019092919080359060200190929190505050610df1565b604051808215151515815260200191505060405180910390f35b34801561040257600080fd5b5061040b610ee2565b604051808273ffffffffffffffffffffffffffffffffffffffff1673ffffffffffffffffffffffffffffffffffffffff16815260200191505060405180910390f35b34801561045957600080fd5b506104866004803603602081101561047057600080fd5b8101908080359060200190929190505050610f08565b604051808273ffffffffffffffffffffffffffffffffffffffff1673ffffffffffffffffffffffffffffffffffffffff16815260200191505060405180910390f35b3480156104d457600080fd5b50610517600480360360208110156104eb57600080fd5b81019080803573ffffffffffffffffffffffffffffffffffffffff169060200190929190505050610fd0565b6040518082815260200191505060405180910390f35b6105596004803603602081101561054357600080fd5b810190808035906020019092919050505061109e565b005b34801561056757600080fd5b5061059e6004803603604081101561057e57600080fd5b81019080803590602001909291908035906020019092919050505061124f565b005b3480156105ac57600080fd5b506105b561131b565b604051808273ffffffffffffffffffffffffffffffffffffffff1673ffffffffffffffffffffffffffffffffffffffff16815260200191505060405180910390f35b34801561060357600080fd5b506106526004803603604081101561061a57600080fd5b81019080803573ffffffffffffffffffffffffffffffffffffffff169060200190929190803515159060200190929190505050611341565b005b34801561066057600080fd5b5061068d6004803603602081101561067757600080fd5b81019080803590602001909291905050506114e4565b6040518082815260200191505060405180910390f35b3480156106af57600080fd5b506107b3600480360360808110156106c657600080fd5b81019080803573ffffffffffffffffffffffffffffffffffffffff169060200190929190803573ffffffffffffffffffffffffffffffffffffffff169060200190929190803590602001909291908035906020019064010000000081111561072d57600080fd5b82018360208201111561073f57600080fd5b8035906020019184600183028401116401000000008311171561076157600080fd5b91908080601f016020809104026020016040519081016040528093929190818152602001838380828437600081840152601f19601f8201169050808301925050505050505091929192905050506114fc565b005b3480156107c157600080fd5b50610824600480360360408110156107d857600080fd5b81019080803573ffffffffffffffffffffffffffffffffffffffff169060200190929190803573ffffffffffffffffffffffffffffffffffffffff169060200190929190505050611522565b604051808215151515815260200191505060405180910390f35b6000806000837bffffffffffffffffffffffffffffffffffffffffffffffffffffffff19167bffffffffffffffffffffffffffffffffffffffffffffffffffffffff1916815260200190815260200160002060009054906101000a900460ff169050919050565b60006002600083815260200190815260200160002060009054906101000a900473ffffffffffffffffffffffffffffffffffffffff169050919050565b60006001600083815260200190815260200160002060009054906101000a900473ffffffffffffffffffffffffffffffffffffffff1690508073ffffffffffffffffffffffffffffffffffffffff168373ffffffffffffffffffffffffffffffffffffffff1614156109bc576040517f08c379a00000000000000000000000000000000000000000000000000000000081526004018080602001828103825260198152602001807f617070726f76616c20746f2063757272656e74206f776e65720000000000000081525060200191505060405180910390fd5b3373ffffffffffffffffffffffffffffffffffffffff168173ffffffffffffffffffffffffffffffffffffffff1614806109fc57506109fb8133611522565b5b610a51576040517f08c379a0000000000000000000000000000000000000000000000000000000008152600401808060200182810382526030815260200180611d3e6030913960400191505060405180910390fd5b826002600084815260200190815260200160002060006101000a81548173ffffffffffffffffffffffffffffffffffffffff021916908373ffffffffffffffffffffffffffffffffffffffff160217905550818373ffffffffffffffffffffffffffffffffffffffff168273ffffffffffffffffffffffffffffffffffffffff167f8c5be1e5ebec7d5bd14f71427d1e84f3dd0314c0f7b2291e5b200ac8c7c3b92560405160405180910390a4505050565b600060076000838152602001908152602001600020549050919050565b8273ffffffffffffffffffffffffffffffffffffffff16610b4082610f08565b73ffffffffffffffffffffffffffffffffffffffff1614610bac576040517f08c379a0000000000000000000000000000000000000000000000000000000008152600401808060200182810382526029815260200180611e286029913960400191505060405180910390fd5b600073ffffffffffffffffffffffffffffffffffffffff168273ffffffffffffffffffffffffffffffffffffffff161415610c32576040517f08c379a0000000000000000000000000000000000000000000000000000000008152600401808060200182810382526024815260200180611dc26024913960400191505060405180910390fd5b610c3b816115b6565b610c8e6001600360008673ffffffffffffffffffffffffffffffffffffffff1673ffffffffffffffffffffffffffffffffffffffff1681526020019081526020016000205461167490919063ffffffff16565b600360008573ffffffffffffffffffffffffffffffffffffffff1673ffffffffffffffffffffffffffffffffffffffff168152602001908152602001600020819055506001600360008473ffffffffffffffffffffffffffffffffffffffff1673ffffffffffffffffffffffffffffffffffffffff16815260200190815260200160002060008282540192505081905550816001600083815260200190815260200160002060006101000a81548173ffffffffffffffffffffffffffffffffffffffff021916908373ffffffffffffffffffffffffffffffffffffffff160217905550808273ffffffffffffffffffffffffffffffffffffffff168473ffffffffffffffffffffffffffffffffffffffff167fddf252ad1be2c89b69c2b068fc378daa952ba7f163c4a11628f55a4df523b3ef60405160405180910390a4505050565b610dec838383604051806020016040528060008152506114fc565b505050565b6000806001600084815260200190815260200160002060009054906101000a900473ffffffffffffffffffffffffffffffffffffffff16905060006002600085815260200190815260200160002060009054906101000a900473ffffffffffffffffffffffffffffffffffffffff1690508173ffffffffffffffffffffffffffffffffffffffff168573ffffffffffffffffffffffffffffffffffffffff161480610ec757508073ffffffffffffffffffffffffffffffffffffffff168573ffffffffffffffffffffffffffffffffffffffff16145b80610ed85750610ed78233611522565b5b9250505092915050565b600560009054906101000a900473ffffffffffffffffffffffffffffffffffffffff1681565b6000806001600084815260200190815260200160002060009054906101000a900473ffffffffffffffffffffffffffffffffffffffff169050600073ffffffffffffffffffffffffffffffffffffffff168173ffffffffffffffffffffffffffffffffffffffff161415610fc7576040517f08c379a0000000000000000000000000000000000000000000000000000000008152600401808060200182810382526021815260200180611e076021913960400191505060405180910390fd5b80915050919050565b60008073ffffffffffffffffffffffffffffffffffffffff168273ffffffffffffffffffffffffffffffffffffffff161415611057576040517f08c379a0000000000000000000000000000000000000000000000000000000008152600401808060200182810382526022815260200180611da06022913960400191505060405180910390fd5b600360008373ffffffffffffffffffffffffffffffffffffffff1673ffffffffffffffffffffffffffffffffffffffff168152602001908152602001600020549050919050565b60006007600083815260200190815260200160002054905060006110c183610f08565b905081341461111b576040517f08c379a0000000000000000000000000000000000000000000000000000000008152600401808060200182810382526021815260200180611e516021913960400191505060405180910390fd5b8073ffffffffffffffffffffffffffffffffffffffff16600660009054906101000a900473ffffffffffffffffffffffffffffffffffffffff1673ffffffffffffffffffffffffffffffffffffffff1614806111a35750600073ffffffffffffffffffffffffffffffffffffffff168173ffffffffffffffffffffffffffffffffffffffff16145b611215576040517f08c379a000000000000000000000000000000000000000000000000000000000815260040180806020018281038252601e8152602001807f7468697320736e65616b657273206973206e6f7420617661696c61626c65000081525060200191505060405180910390fd5b611242600660009054906101000a900473ffffffffffffffffffffffffffffffffffffffff163385610dd1565b61124a6116be565b505050565b600660009054906101000a900473ffffffffffffffffffffffffffffffffffffffff1673ffffffffffffffffffffffffffffffffffffffff163373ffffffffffffffffffffffffffffffffffffffff16146112f5576040517f08c379a0000000000000000000000000000000000000000000000000000000008152600401808060200182810382526021815260200180611de66021913960400191505060405180910390fd5b6112ff3383611729565b8060076000848152602001908152602001600020819055505050565b600660009054906101000a900473ffffffffffffffffffffffffffffffffffffffff1681565b3373ffffffffffffffffffffffffffffffffffffffff168273ffffffffffffffffffffffffffffffffffffffff1614156113e3576040517f08c379a00000000000000000000000000000000000000000000000000000000081526004018080602001828103825260118152602001807f617070726f766520746f2063616c6c657200000000000000000000000000000081525060200191505060405180910390fd5b80600460003373ffffffffffffffffffffffffffffffffffffffff1673ffffffffffffffffffffffffffffffffffffffff16815260200190815260200160002060008473ffffffffffffffffffffffffffffffffffffffff1673ffffffffffffffffffffffffffffffffffffffff16815260200190815260200160002060006101000a81548160ff0219169083151502179055508173ffffffffffffffffffffffffffffffffffffffff163373ffffffffffffffffffffffffffffffffffffffff167f17307eab39ab6107e8899845ad3d59bd9653f200f220920489ca2b5937696c3183604051808215151515815260200191505060405180910390a35050565b60076020528060005260406000206000915090505481565b611507848484610b20565b61151384848484611747565b61151c57600080fd5b50505050565b6000600460008473ffffffffffffffffffffffffffffffffffffffff1673ffffffffffffffffffffffffffffffffffffffff16815260200190815260200160002060008373ffffffffffffffffffffffffffffffffffffffff1673ffffffffffffffffffffffffffffffffffffffff16815260200190815260200160002060009054906101000a900460ff16905092915050565b600073ffffffffffffffffffffffffffffffffffffffff166002600083815260200190815260200160002060009054906101000a900473ffffffffffffffffffffffffffffffffffffffff1673ffffffffffffffffffffffffffffffffffffffff16146116715760006002600083815260200190815260200160002060006101000a81548173ffffffffffffffffffffffffffffffffffffffff021916908373ffffffffffffffffffffffffffffffffffffffff1602179055505b50565b60006116b683836040518060400160405280601e81526020017f536166654d6174683a207375627472616374696f6e206f766572666c6f770000815250611930565b905092915050565b600560009054906101000a900473ffffffffffffffffffffffffffffffffffffffff1673ffffffffffffffffffffffffffffffffffffffff166108fc349081150290604051600060405180830381858888f19350505050158015611726573d6000803e3d6000fd5b50565b6117438282604051806020016040528060008152506119f0565b5050565b60006117688473ffffffffffffffffffffffffffffffffffffffff16611a61565b6117755760019050611928565b60008473ffffffffffffffffffffffffffffffffffffffff1663150b7a02338887876040518563ffffffff1660e01b8152600401808573ffffffffffffffffffffffffffffffffffffffff1673ffffffffffffffffffffffffffffffffffffffff1681526020018473ffffffffffffffffffffffffffffffffffffffff1673ffffffffffffffffffffffffffffffffffffffff16815260200183815260200180602001828103825283818151815260200191508051906020019080838360005b83811015611850578082015181840152602081019050611835565b50505050905090810190601f16801561187d5780820380516001836020036101000a031916815260200191505b5095505050505050602060405180830381600087803b15801561189f57600080fd5b505af11580156118b3573d6000803e3d6000fd5b505050506040513d60208110156118c957600080fd5b8101908080519060200190929190505050905063150b7a0260e01b7bffffffffffffffffffffffffffffffffffffffffffffffffffffffff1916817bffffffffffffffffffffffffffffffffffffffffffffffffffffffff1916149150505b949350505050565b60008383111582906119dd576040517f08c379a00000000000000000000000000000000000000000000000000000000081526004018080602001828103825283818151815260200191508051906020019080838360005b838110156119a2578082015181840152602081019050611987565b50505050905090810190601f1680156119cf5780820380516001836020036101000a031916815260200191505b509250505060405180910390fd5b5060008385039050809150509392505050565b6119fa8383611aac565b611a076000848484611747565b611a5c576040517f08c379a0000000000000000000000000000000000000000000000000000000008152600401808060200182810382526032815260200180611d6e6032913960400191505060405180910390fd5b505050565b60008060007fc5d2460186f7233c927e7db2dcc703c0e500b653ca82273b7bfad8045d85a47060001b9050833f9150808214158015611aa357506000801b8214155b92505050919050565b600073ffffffffffffffffffffffffffffffffffffffff168273ffffffffffffffffffffffffffffffffffffffff161415611b4f576040517f08c379a00000000000000000000000000000000000000000000000000000000081526004018080602001828103825260208152602001807f4552433732313a206d696e7420746f20746865207a65726f206164647265737381525060200191505060405180910390fd5b611b5881611ccb565b15611bcb576040517f08c379a000000000000000000000000000000000000000000000000000000000815260040180806020018281038252601c8152602001807f4552433732313a20746f6b656e20616c7265616479206d696e7465640000000081525060200191505060405180910390fd5b816001600083815260200190815260200160002060006101000a81548173ffffffffffffffffffffffffffffffffffffffff021916908373ffffffffffffffffffffffffffffffffffffffff1602179055506001600360008473ffffffffffffffffffffffffffffffffffffffff1673ffffffffffffffffffffffffffffffffffffffff16815260200190815260200160002060008282540192505081905550808273ffffffffffffffffffffffffffffffffffffffff16600073ffffffffffffffffffffffffffffffffffffffff167fddf252ad1be2c89b69c2b068fc378daa952ba7f163c4a11628f55a4df523b3ef60405160405180910390a45050565b6000806001600084815260200190815260200160002060009054906101000a900473ffffffffffffffffffffffffffffffffffffffff169050600073ffffffffffffffffffffffffffffffffffffffff168173ffffffffffffffffffffffffffffffffffffffff16141591505091905056fe617070726f76652063616c6c6572206973206e6f74206f776e6572206e6f7220617070726f76656420666f7220616c6c4552433732313a207472616e7366657220746f206e6f6e20455243373231526563656976657220696d706c656d656e74657262616c616e636520717565727920666f7220746865207a65726f20616464726573734552433732313a207472616e7366657220746f20746865207a65726f20616464726573736f6e6c79206f776e65722063616e20637265617465206e657720736e65616b65726f776e657220717565727920666f72206e6f6e6578697374656e7420746f6b656e4552433732313a207472616e73666572206f6620746f6b656e2074686174206973206e6f74206f776e6861766520746f2070617920726967687420616d6f756e74206f66206d6f6e6579a165627a7a72305820c8396da754cad55b1496d1dfaf516ed6d6a1e50d3fcbba657725a0ca7edbf29b0029",
  "source": "pragma solidity ^0.5.8;\n\nlibrary SafeMath {\n    function add(uint256 a, uint256 b) internal pure returns (uint256) {\n        uint256 c = a + b;\n        require(c >= a, \"SafeMath: addition overflow\");\n        return c;\n    }\n    function sub(uint256 a, uint256 b) internal pure returns (uint256) {\n        return sub(a, b, \"SafeMath: subtraction overflow\");\n    }\n    function sub(uint256 a, uint256 b, string memory errorMessage)\n        internal\n        pure\n        returns (uint256)\n    {\n        require(b <= a, errorMessage);\n        uint256 c = a - b;\n\n        return c;\n    }\n    function mul(uint256 a, uint256 b) internal pure returns (uint256) {\n        if (a == 0) {\n            return 0;\n        }\n        uint256 c = a * b;\n        require(c / a == b, \"SafeMath: multiplication overflow\");\n        return c;\n    }\n    function div(uint256 a, uint256 b) internal pure returns (uint256) {\n        return div(a, b, \"SafeMath: division by zero\");\n    }\n    function div(uint256 a, uint256 b, string memory errorMessage)\n        internal\n        pure\n        returns (uint256)\n    {\n        // Solidity only automatically asserts when dividing by 0\n        require(b > 0, errorMessage);\n        uint256 c = a / b;\n        // assert(a == b * c + a % b); // There is no case in which this doesn't hold\n\n        return c;\n    }\n    function mod(uint256 a, uint256 b) internal pure returns (uint256) {\n        return mod(a, b, \"SafeMath: modulo by zero\");\n    }\n    function mod(uint256 a, uint256 b, string memory errorMessage)\n        internal\n        pure\n        returns (uint256)\n    {\n        require(b != 0, errorMessage);\n        return a % b;\n    }\n}\nlibrary Address {\n    function isContract(address account) internal view returns (bool) {\n        // According to EIP-1052, 0x0 is the value returned for not-yet created accounts\n        // and 0xc5d2460186f7233c927e7db2dcc703c0e500b653ca82273b7bfad8045d85a470 is returned\n        // for accounts without code, i.e. `keccak256('')`\n        bytes32 codehash;\n        bytes32 accountHash = 0xc5d2460186f7233c927e7db2dcc703c0e500b653ca82273b7bfad8045d85a470;\n        // solhint-disable-next-line no-inline-assembly\n        assembly {\n            codehash := extcodehash(account)\n        }\n        return (codehash != accountHash && codehash != 0x0);\n    }\n    function toPayable(address account)\n        internal\n        pure\n        returns (address payable)\n    {\n        return address(uint160(account));\n    }\n    function sendValue(address payable recipient, uint256 amount) internal {\n        require(\n            address(this).balance >= amount,\n            \"Address: insufficient balance\"\n        );\n\n        // solhint-disable-next-line avoid-call-value\n        (bool success, ) = recipient.call.value(amount)(\"\");\n        require(\n            success,\n            \"Address: unable to send value, recipient may have reverted\"\n        );\n    }\n}\ninterface IERC165 {\n    function supportsInterface(bytes4 interfaceID) external view returns (bool);\n}\n\ncontract ERC165 is IERC165 {\n    bytes4 private constant _INTERFACE_ID_ERC165 = 0x01ffc9a7;\n\n    mapping(bytes4 => bool) private _supportedInterfaces;\n\n    constructor() internal {\n        _registerInterface(_INTERFACE_ID_ERC165);\n    }\n\n    function supportsInterface(bytes4 interfaceId)\n        external\n        view\n        returns (bool)\n    {\n        return _supportedInterfaces[interfaceId];\n    }\n\n    function _registerInterface(bytes4 interfaceId) internal {\n        require(interfaceId != 0xffffffff, \"ERC165: invalid interface id\");\n        _supportedInterfaces[interfaceId] = true;\n    }\n}\ncontract ERC721Receiver {\n    function onERC721Received(\n        address operator,\n        address from,\n        uint256 tokenId,\n        bytes memory data\n    ) public returns (bytes4);\n}\ninterface IERC721 {\n    /* is ERC165 */\n    event Transfer(\n        address indexed _from,\n        address indexed _to,\n        uint256 indexed _tokenId\n    );\n    event Approval(\n        address indexed _owner,\n        address indexed _approved,\n        uint256 indexed _tokenId\n    );\n    event ApprovalForAll(\n        address indexed _owner,\n        address indexed _operator,\n        bool _approved\n    );\n\n    function balanceOf(address _owner) external view returns (uint256);\n\n    function ownerOf(uint256 _tokenId) external view returns (address);\n\n    function safeTransferFrom(\n        address _from,\n        address _to,\n        uint256 _tokenId,\n        bytes calldata data\n    ) external;\n\n    function safeTransferFrom(address _from, address _to, uint256 _tokenId)\n        external;\n\n    function transferFrom(address _from, address _to, uint256 _tokenId)\n        external;\n\n    function approve(address _approved, uint256 _tokenId) external payable;\n\n    function setApprovalForAll(address _operator, bool _approved) external;\n\n    function getApproved(uint256 _tokenId) external view returns (address);\n\n    function isApprovedForAll(address _owner, address _operator)\n        external\n        view\n        returns (bool);\n}\n\ncontract ERC721 is ERC165, IERC721 {\n    using SafeMath for uint256;\n    using Address for address;\n    bytes4 private constant _ERC721_RECEIVED = 0x150b7a02;\n    mapping(uint256 => address) private _tokenOwner;\n    mapping(uint256 => address) private _approvalUsersList;\n    mapping(address => uint256) private _numberOfOwnedToken;\n    mapping(address => mapping(address => bool)) private _approvalUsersAllList;\n    bytes4 private constant _INTERFACE_ID_ERC721 = 0x80ac58cd;\n    constructor() public {\n        _registerInterface(_INTERFACE_ID_ERC721);\n    }\n    function balanceOf(address owner) public view returns (uint256) {\n        require(owner != address(0), \"balance query for the zero address\");\n        return _numberOfOwnedToken[owner];\n    }\n\n    function ownerOf(uint256 tokenId) public view returns (address) {\n        address owner = _tokenOwner[tokenId];\n        require(owner != address(0), \"owner query for nonexistent token\");\n        return owner;\n    }\n\n    function safeTransferFrom(address from, address to, uint256 tokenId)\n        public\n    {\n        safeTransferFrom(from, to, tokenId, \"\");\n    }\n    function safeTransferFrom(\n        address from,\n        address to,\n        uint256 tokenId,\n        bytes memory data\n    ) public {\n        transferFrom(from, to, tokenId);\n        require(checkAndCallSafeTransfer(from, to, tokenId, data));\n    }\n\n    function approve(address approved, uint256 tokenId) public payable {\n        address owner = _tokenOwner[tokenId];\n        require(approved != owner, \"approval to current owner\");\n        require(\n            owner == msg.sender || isApprovedForAll(owner, msg.sender),\n            \"approve caller is not owner nor approved for all\"\n        );\n        _approvalUsersList[tokenId] = approved;\n        emit Approval(owner, approved, tokenId);\n    }\n\n    function setApprovalForAll(address operator, bool approved) public {\n        require(operator != msg.sender, \"approve to caller\");\n        _approvalUsersAllList[msg.sender][operator] = approved;\n        emit ApprovalForAll(msg.sender, operator, approved);\n    }\n\n    function getApproved(uint256 tokenId) public view returns (address) {\n        return _approvalUsersList[tokenId];\n    }\n\n    function isApprovedForAll(address owner, address operator)\n        public\n        view\n        returns (bool)\n    {\n        return _approvalUsersAllList[owner][operator];\n    }\n    function isApprovedOrOwner(address sender, uint256 tokenId)\n        public\n        view\n        returns (bool)\n    {\n        address owner = _tokenOwner[tokenId];\n        address approved = _approvalUsersList[tokenId];\n        return (sender == owner ||\n            sender == approved ||\n            isApprovedForAll(owner, msg.sender));\n    }\n    modifier transferable(uint256 tokenId) {\n        require(isApprovedOrOwner(msg.sender, tokenId));\n        _;\n    }\n    function transferFrom(address from, address to, uint256 tokenId) public {\n        require(\n            ownerOf(tokenId) == from,\n            \"ERC721: transfer of token that is not own\"\n        );\n        require(to != address(0), \"ERC721: transfer to the zero address\");\n\n        _clearApproval(tokenId);\n        _numberOfOwnedToken[from] = _numberOfOwnedToken[from].sub(1);\n        _numberOfOwnedToken[to] += 1;\n\n        _tokenOwner[tokenId] = to;\n\n        emit Transfer(from, to, tokenId);\n    }\n    function _clearApproval(uint256 tokenId) private {\n        if (_approvalUsersList[tokenId] != address(0)) {\n            _approvalUsersList[tokenId] = address(0);\n        }\n    }\n    function checkAndCallSafeTransfer(\n        address from,\n        address to,\n        uint256 tokenId,\n        bytes memory data\n    ) internal returns (bool) {\n        if (!address(to).isContract()) {\n            return true;\n        }\n        bytes4 retval = ERC721Receiver(to).onERC721Received(\n            msg.sender,\n            from,\n            tokenId,\n            data\n        );\n        return (retval == _ERC721_RECEIVED);\n    }\n    function _safeMint(address to, uint256 tokenId) internal {\n        _safeMint(to, tokenId, \"\");\n    }\n    function _safeMint(address to, uint256 tokenId, bytes memory _data)\n        internal\n    {\n        _mint(to, tokenId);\n        require(\n            checkAndCallSafeTransfer(address(0), to, tokenId, _data),\n            \"ERC721: transfer to non ERC721Receiver implementer\"\n        );\n    }\n    function _mint(address to, uint256 tokenId) internal {\n        require(to != address(0), \"ERC721: mint to the zero address\");\n        require(!_exists(tokenId), \"ERC721: token already minted\");\n        _tokenOwner[tokenId] = to;\n        _numberOfOwnedToken[to] += 1;\n        emit Transfer(address(0), to, tokenId);\n    }\n    function _exists(uint256 tokenId) internal view returns (bool) {\n        address owner = _tokenOwner[tokenId];\n        return owner != address(0);\n    }\n}\n\ncontract sneakerMarket is ERC721 {\n    address payable public _wallet;\n    address public owner;\n    mapping(uint256 => uint256) public tokenIdToSneakerPrice;\n    modifier onlyOwner() {\n        require(msg.sender == owner, \"only owner can create new sneaker\");\n        _;\n    }\n    constructor(address payable wallet) public {\n        owner = msg.sender;\n        _wallet = wallet;\n    }\n    function storingNewSneaker(uint256 _tokenId, uint256 _price)\n        public\n        onlyOwner\n    {\n        _safeMint(msg.sender, _tokenId);\n        tokenIdToSneakerPrice[_tokenId] = _price;\n    }\n    function checkPrice(uint256 _tokenId) public view returns (uint256) {\n        return tokenIdToSneakerPrice[_tokenId];\n    }\n    function buySneaker(uint256 _tokenId) public payable {\n        uint256 price = tokenIdToSneakerPrice[_tokenId];\n        address _owner = ownerOf(_tokenId);\n        require(msg.value == price, \"have to pay right amount of money\");\n        require(\n            (owner == _owner || _owner == address(0)),\n            \"this sneakers is not available\"\n        );\n        safeTransferFrom(owner, msg.sender, _tokenId);\n        _forwardFunds();\n    }\n    function _forwardFunds() internal {\n        _wallet.transfer(msg.value);\n    }\n}\n",
  "sourcePath": "/home/tuan/Documents/BlockChain_Course/Smart_Contract_Essentials/assignment/contracts/ERC721.sol",
  "compiler": {
    "name": "solc",
    "version": "0.5.8+commit.23d335f2.Emscripten.clang"
  },
  "schemaVersion": "3.0.16",
  "updatedAt": "2020-01-25T07:37:04.570Z",
  "devdoc": {
    "methods": {}
  },
  "userdoc": {
    "methods": {}
  }
}